:020000040800F2
:1000000048070020A90100089B210008B92000082A
:1000100099210008D51300081D24000800000000E5
:100020000000000000000000000000009F21000808
:10003000D7130008000000009D210008A12100083E
:10004000C3010008C3010008C3010008C301000880
:10005000C3010008C3010008C3010008C301000870
:10006000C3010008C3010008C3010008C301000860
:10007000C3010008C3010008C3010008C301000850
:10008000C3010008C3010008C3010008C301000840
:10009000C3010008C3010008C3010008C301000830
:1000A000C3010008C3010008C3010008C301000820
:1000B000C3010008C301000800000000C3010008DC
:1000C000C30100080000000000000000C301000898
:1000D0000000000011240008C30100080000000017
:1000E000C3010008C3010008C301000800F002F8C2
:1000F00000F04AF80AA090E8000C82448344AAF178
:100100000107DA4501D100F03FF8AFF2090EBAE875
:100110000F0013F0010F18BFFB1A43F0010318473B
:100120001C3600003C360000103A24BF78C878C165
:10013000FAD8520724BF30C830C144BF04680C60ED
:10014000704700000023002400250026103A28BF35
:1001500078C1FBD8520728BF30C148BF0B60704739
:10016000662903F08A82642900F0528000207047DB
:100170001FB500F003FC04000020002102F05CFF2A
:10018000E0601FBD10B510BD00F0F4FC1146FFF794
:10019000EFFF02F03FFA00F012FD03B4FFF7F2FFA9
:1001A00003BC00F055FD000009488047094800479E
:1001B000FEE7FEE7FEE7FEE7FEE7FEE7FEE7FEE717
:1001C000FEE7FEE704480549054A064B7047000074
:1001D000FB210008ED00000848010020480700202E
:1001E00048030020480300200FB41CB5074B06AAA3
:1001F0007B4469460090059800F0A7FB0020694603
:1002000000F0B6FB1CBC5DF814FB00007D0700008D
:100210002DE9F0410646002410687529314616A5DF
:1002200010D0AFF30080002802DA404213A507E0A7
:1002300031688A0701D512A502E0490704D511A546
:10024000012401E0AFF3008000210A2206F1240717
:1002500009E0B0FBF2FCB0FBF2F302FB1C00303013
:1002600078541846491C0028F3D123462A463046C4
:10027000BDE8F04100F0FEB8000000002D000000D5
:100280002B000000200000002DE9F05F89460446A5
:100290004FF0000ADFF824B1FB44C0F820A020464C
:1002A000E168884700287DD0252806D0D4E90121BF
:1002B0009047206A401C2062F1E700255F462046F7
:1002C000E16888472028064607DB312E05D2B81999
:1002D00010F8200C08B10543F1E7A80701D525F077
:1002E0000405C4F81CA00027C4F818A02A2E09D0C1
:1002F000304602F0B8F838B304EB8708303EC8F84F
:10030000186019E059F8041B204604EB870291613C
:10031000E1688847012F064618D1E069002820DAF5
:1003200025F020051DE0D8F8180000EB800006EB52
:1003300040003038C8F818002046E1688847064673
:1003400002F091F80028EED1012F0AD02E2E08D10C
:100350002046E16888477F1C0646022F45F02005AD
:10036000C4DBA069002803DA404245F00105A06122
:10037000E80701D025F01005A6B1A6F14100192823
:1003800002D8203645F400654A46314620462560AD
:100390004D46FFF7E5FE60B1012807D0ED1D25F0C1
:1003A000070000E007E000F1080978E705F104091B
:1003B00075E730467AE7206ABDE8F09FFA3300001F
:1003C00040EA0103024630B59B0710D14FF00134DB
:1003D00000E008C208C91D1B9D4315EAC41FF8D0E0
:1003E00013F0FF0102F8011B0DD01B0AF8E711F80A
:1003F000013B002B02F8013B05D011F8013B002B1B
:1004000002F8013BF3D130BD421E12F8013F002B30
:10041000FBD111F8013B002B02F8013BF9D17047E9
:100420004FF0000200B5134694469646203922BF8D
:10043000A0E80C50A0E80C50B1F12001BFF4F7AFD8
:10044000090728BFA0E80C5048BF0CC05DF804EBBA
:10045000890028BF40F8042B08BF704748BF20F828
:10046000022B11F0804F18BF00F8012B7047704726
:10047000704770472DE9F0470D469946924604466D
:1004800000F124080168880604D5E06921F0100114
:10049000216000E00120A84201DD471B00E00027A9
:1004A000A1697A1902EB0900081AA0612078C00638
:1004B00002D42046AFF30080002608E0D4E90121F1
:1004C0001AF806009047206A401C761C20624E45B0
:1004D000F4DB2078C0060AD52046AFF3008006E0A2
:1004E000D4E9012130209047206A401C2062381E48
:1004F000A7F10107F4DC07E0D4E9012118F80500B1
:100500009047206A401C2062281EA5F10105F3DCFB
:100510002046AFF300802078000602D50220BDE817
:10052000F0870120FBE770472DE9FF4F0C461E4680
:100530004FF0FF378BB0D2E90001DDF860800A9000
:100540008A46C1F30A5505B93D46002108464FF0D9
:100550000000BAF1000F00F4400005DA00EB800063
:100560004FF4400101EA50004FEA9059B9F1010FF0
:1005700000DDB9460A9850EA4A000ED044F6105001
:10058000A5F2FF3545432F14B8F1000F1ED0754278
:10059000291E1EDDC9F100021CE0B8F1010F4FF069
:1005A000000001D0302103E0F24305E02154401C5B
:1005B000B042FBDB30460022002121540B99C1F8E8
:1005C0000880C1E900200FB0BDE8F08FBD1B6D1C95
:1005D000DEE74A4600DA694206A800F059FA06AB9F
:1005E00093E8070003AB83E8070050460A9900F040
:1005F00036FB8DE80700A0F500501F3800900398E7
:10060000002D09DD42F21F014A46084403A9039068
:10061000684600F095FD08E0A0F500504A461F38F6
:1006200003A90390684600F09FFD8DE807000004D1
:10063000000C03D04FF0FF30410800E01046B8F145
:10064000000F03D00022009215461EE0751E05D44F
:1006500000F098F9303262556D1EF9D5B34601228B
:10066000084302D000227F1C04E02078302801D10A
:1006700000227F1E002A099786D01DE0112D07DA7F
:1006800000F080F9303262556D1C50EA0102F5D15C
:10069000084302D00098C8B10EE00021681E05E0B2
:1006A000235C625C63542254401E491C8142F7DB88
:1006B000AB46A81B401E0990002004F80B000B98C5
:1006C000099AC0F80880C0E9002B7CE711264FF09A
:1006D000000859E72DE9F04F88460446D21D22F064
:1006E000070191B0D1E90001CDE90A0101F097FEBF
:1006F00002460B98C00F01D02D2007E0206881072B
:1007000001D52B2002E0202101EAC000032A099034
:1007100001D0072A05DB03464146204600F078F960
:100720000BE12078800601D5E06900E00620B8F1F1
:10073000650F814606D0B8F1660F18D0B8F1670F83
:1007400070D131E00020B9F1110F009001DB1123CD
:1007500001E009F101030AAA01A90CA8FFF7E4FED0
:10076000DDE90C70002609F10105834647E0012010
:100770004B4600904FF000470AAA01A90CA8FFF7CA
:10078000D3FEDDE90DB00C995D46002610B909F1E4
:1007900001000D18B9EB050003D4C0F1FF3609F1D3
:1007A0000105A5EB09002BE0B9F1010F01DA4FF0CB
:1007B00001090020B9F1110F0090484601DD112315
:1007C00000E003460AAA01A90CA8FFF7ADFEDDE987
:1007D0000C704D4600268346207800070AD4AB45AE
:1007E00000DA5D4601A8012D04DD411911F8011C54
:1007F000302907D04F4502DA17F1040F04DA01203F
:1008000082460FE06D1EEEE7002F02DCED1B3E443A
:1008100003E0781CA84200DD7D1CB81B00F1010A32
:100820004FF000472078000703D4AA4501DB4FF0C2
:10083000FF3A0021B7F1004F0DF143088DF8431046
:1008400024D002202B23002F01DA7F422D230A21FE
:10085000021EA0F1010000DC5FB197FBF1FC97FBE9
:10086000F1F201FB1C7C17460CF1300C08F801CDAD
:10087000EEE7A8F1010003702188090501D54521A3
:1008800000E06521A0F1010800F8011C09980FA9FA
:10089000A1EB0807FF1D00B10120411901EBEA702F
:1008A000A1693844081A401EA0612078C00602D40D
:1008B0002046AFF30080099828B1D4E90121904780
:1008C000206A401C20622078C00622D52046AFF363
:1008D00000801EE0002E04DBB34502DD01A8805D30
:1008E00000E03020D4E901219047206A401C2062BA
:1008F000761CAAF101005FEA000A0AD100F03EF876
:10090000C0680168405CD4E901219047206A401C1E
:100910002062281EA5F10105DCDC07E0D4E90121F5
:1009200018F8010B9047206A401C2062381EA7F17E
:100930000107F3DC2046AFF30080032011B043E64B
:1009400001694A1C02610878704700B58FB0CDE993
:1009500001310021059105497944CDE90310114683
:100960006846FFF791FC0FB000BD0000E5FFFFFFF8
:100970000A6802F8010B0A607047000000487047DF
:100980000801002030B5B0F10A024FEA900E71F173
:1009900000034EEA817EB0EB0E0061EB91014FEA5D
:1009A000101E4EEA017E10EB0E0041EB11114FEAD2
:1009B000102E4EEA016E10EB0E0041EB11214FEAB2
:1009C000104E4EEA014E10EB0E0041EB1141401863
:1009D00041F100014FEAD00040EA41704FEAD101F5
:1009E00010EB80054FEA810444EA907444EB010463
:1009F0006D1944EB0404521BA3414FF0000348BFA0
:100A00000A3200D530BD401C41F1000130BD00006C
:100A10002DE9F0411F46044603260168072A01F428
:100A2000006004DB08B116A505E016A503E008B1D7
:100A300015A500E015A521F010002060A069C01EDA
:100A4000A0610FB1401EA0612046AFF300804FB1FE
:100A5000D4E9012138469047206A401C2062C01C1E
:100A6000206206E0206AFAE7D4E9012115F8010BBB
:100A70009047761EF8D22046AFF30080BDE8F081A3
:100A80004E414E006E616E00494E4600696E660032
:100A90002DE9F047814616468AB0334878440DC8A0
:100AA0008DE80D0030487844801C03AC0DC884E804
:100AB0000D0041F69B300844372190FBF1F290FB8A
:100AC000F1F5A5F1800501FB12041B3C02D564423F
:100AD000012000E00020DFF890A080460027FA44C3
:100AE000AAF1BE0A0DE0E00709D03246684607EBDE
:100AF00047010AEB810100F037FB8DE80700641025
:100B00007F1C002CEFD1184F7F44AC3F18E0E80762
:100B100014D007EB04100DF1180A90E80E008AE8D3
:100B20000E00C068F04201D198190890324606A91B
:100B300003A800F019FB03AB83E807006D10641CE9
:100B4000002DE4D132466946B8F1000F03A802D067
:100B500000F0F6FA01E000F007FBC9E90001C9F86E
:100B600008200AB0BDE8F087842C000000487047D8
:100B7000E80000207546FFF7F9FFAE46050069461C
:100B8000534620F00700854618B020B5FFF71AFB42
:100B9000BDE820404FF000064FF000074FF000087E
:100BA0004FF0000B21F00701AC46ACE8C009ACE8FF
:100BB000C009ACE8C009ACE8C0098D46704710B563
:100BC0000446AFF300802046BDE81040FFF7E5BAC9
:100BD0004FF0013C50F8042B51F8043B9A4221D1CC
:100BE000A2EB0C03934313EACC1317D150F8042B58
:100BF00051F8043B9A4215D1A2EB0C03934313EA3C
:100C0000CC130BD150F8042B51F8043B9A4209D174
:100C1000A2EB0C03934313EACC13DBD04FF000009C
:100C2000704700BFD01A01BAB1FA81F101F0180182
:100C300022FA01F0CB40C1F12001DBB2C0B2C01AF0
:100C40002CFA01F3D11A914311EAC311E6D170478E
:100C500001491820ABBEFEE72600020070475FEA9C
:100C6000400C08BF91F0000F4FEA8C234FEAC122DD
:100C700043EA51514FEA1C5018BF00F5F0404FEACB
:100C8000300018BF41F000415FEA6C5C00F0298041
:100C9000BCF1FF3F08BF40F080407047130C06BF17
:100CA00012044FF0100C4FF0000C130E04BF120290
:100CB0000CF1080C130F04BF12010CF1040C930F7C
:100CC00004BF92000CF1020CD30F04BF52000CF1D0
:100CD000010C11464FF00002A0F11F00A0EB0C0028
:100CE000704711F0004F08BF704731F000413FF4EA
:100CF000D5AF0B0C06BF09044FF0100C4FF0000CE1
:100D00000B0E04BF09020CF1080C0B0F04BF090104
:100D10000CF1040C8B0F04BF89000CF1020CCB0FFB
:100D200004BF49000CF1010CCCF12003A0EB0C0036
:100D300022FA03F302FA0CF241EA030100F1010086
:100D4000704720F07F4C80EA030023F07F47ACEB34
:100D5000070303F57C5300F0004003F1FF032DE986
:100D600080494FEA154B09B44FEA144325EA0B4E6C
:100D700024EA03480FF2042606EB132749083E78BD
:100D80005FEA320203FB0667C7F5000707FB06F6BA
:100D90004FEA54374FEAD64606F1020607FB066CC7
:100DA000CCF1005C4FEA1C472CEA074C07FB06F429
:100DB0000CFB06F504EB15464FEA961634BF0020EF
:100DC0004FF000404FEAD13706FB07FC4FEA1C4CBE
:100DD0000CFB0BF7D21B03FB0CF761EB07010CFBC1
:100DE0000EF7B0EB074072EB17420CFB08F734BF6D
:100DF000A2EB0742B2EB074261EB17414FEA0C440A
:100E00004FEA910706FB07FC4FEA1C4C0CFB0BF763
:100E1000B0EBC74072EB573203FB0CF734BFA2EBC9
:100E2000C742B2EBC74261EB57310CFB0EF7B0EB98
:100E3000C70072EB57720CFB08F734BFA2EBC70276
:100E4000B2EBC70261EB5771039F4FEA816141EA40
:100E5000921104EBCC044FEAD1374FEA826206FBD1
:100E600007FC42EA90124FEA80604FEA1C4C0CFBF0
:100E70000BF7D21B03FB0CF761EB07010CFB0EF722
:100E8000B0EB074072EB17420CFB08F734BFA2EB44
:100E90000742B2EB074261EB17414FEA8C554FEA2C
:100EA000910704EB9C2406FB07FC4FEA1C4C0CFB4F
:100EB0000BF7B0EBC74072EB573203FB0CF734BFB4
:100EC000A2EBC742B2EBC74261EB57310CFB0EF706
:100ED000B0EBC70072EB57720CFB08F734BFA2EB04
:100EE000C702B2EBC70261EB577115EB4C254FEA15
:100EF000816141EA92114FEA82624FEAD13742EAB8
:100F0000901206FB07FC44F100044FEA80604FEAB0
:100F10001C4C0CFB0BF7D21B03FB0CF761EB07011E
:100F20000CFB0EF7B0EB074072EB17420CFB08F717
:100F300034BFA2EB0742B2EB074261EB174115EB5E
:100F40001C154FEA813141EA92414FEA823242EA6E
:100F500090424FEA80304FEA0C7644F1000448EAB0
:100F600003434EEA0B484FF0000EB2EB080C71EB56
:100F7000030724BF624639464EEB0E0E4FF0000BBE
:100F80000018524149414BEB0B0BB2EB080C71EBD3
:100F900003077BF1000B24BF624639464EEB0E0E71
:100FA0004FF0000B0018524149414BEB0B0BB2EBD9
:100FB000080C71EB03077BF1000B24BF6246394636
:100FC0004EEB0E0E51EA020718BF46F0010616EB73
:100FD0000E7655F1000254F1000103D5BDE88901F8
:100FE000BDE80088BDE88901BDE80048B619524156
:100FF00041EB0101A3F10103704780807F7E7D7C7E
:101000007B7A7978777676757473727171706F6E9A
:101010006E6D6C6C6B6A6A69686867666665646445
:10102000636362616160605F5F5E5E5D5D5C5C5BCF
:101030005B5A5A595958585757565655555554543E
:10104000535352525251515050504F4F4F4E4E4D9C
:101050004D4D4C4C4C4B4B4B4A4A4A4949494848E8
:101060004847474747464646454545444444444328
:1010700043434342424242414141002B26D4770040
:1010800021D01CB54FEA370703B44FF010004FF0E2
:1010900010014FF000000FBCBDE810400BF1010B38
:1010A000BBF1010F08BF5FEA170722BF12F101026F
:1010B00011F101014FF0004143F1000300F0004045
:1010C00043EA00007047F9D35708DAE746EA0646D4
:1010D00013F1400F4FEA16461FDD13F1200FDFBF5B
:1010E00016430A46002120335B42C8D0C3F12007D3
:1010F00046EA064602FA07F74FEA164646EA0706A8
:10110000C3F1200722FA03F201FA07F721FA03F1EB
:101110004FF0000342EA0702B1E746EA020646EA58
:1011200006464FEA164646EA0106BCBF46EA0646B0
:10113000360C4FF000034FF000024FF000019EE725
:101140002DE9C048934630B491E8380007C831EA29
:10115000400C48BF34EA430C03D5FFF7F2FDFFF71C
:101160008CFFF0BCBDE800882DE9C048934630B440
:1011700091E8380007C810F0804F08BF13F0804F87
:1011800003D100F005F8FFF778FFF0BCBDE8008858
:1011900020F07F4780EA030023F07F4C07EB0C032D
:1011A000A3F57C5300F00040A3F1FE0392F0000F82
:1011B00000F0B38095F0000F00F077802DE9014931
:1011C0004FEA11404FEA144621EA004800FB06FCB2
:1011D00024EA064708FB06F607FB08F800FB07F7BA
:1011E00018EB06484CEB164C4FEA124B18EB07482D
:1011F0004FEA15464CEB174022EA0B4E0BFB06FC60
:1012000025EA06470EFB06F607FB0EFE0BFB07F76B
:101210001EEB064E4CEB164C4FF000061EEB074E35
:101220004CEB174B18EB0B0840F1000018EB0E0BC2
:1012300058EB000840F100008F1A4FF000013CBF4E
:10124000C943661B14BFB5EB040C00213CBFC94366
:10125000F61B4FEA17444EEA8E0E27EA04454FEA82
:101260001C4704FB07622CEA074C05FB07F70CFB45
:1012700005F604FB0CFC16EB074642EB174216EB97
:101280000C4642EB1C421BEB060658EB02024141A6
:1012900046EA9E0601D5BDE80189B619524141EBE7
:1012A0000101A3F10103BDE801894FEA14454FEAAA
:1012B000114724EA054621EA074C05FB07F406FB23
:1012C00007F70CFB06F105FB0CFC11EB074144EBA7
:1012D00017444FEA124711EB0C4144EB1C4422EA3D
:1012E000074C05FB07F206FB07F70CFB06F605FBB0
:1012F0000CFC16EB074642EB174216EB0C4642EB92
:101300001C456A1854F1000148BF7047B619524194
:1013100041EB0101A3F10103704795F0000F37D0B5
:101320004FEA11424FEA144721EA024624EA074CE9
:1013300002FB07F106FB07F70CFB06F402FB0CFCB3
:1013400014EB074441EB17414FEA154714EB0C44EB
:1013500041EB1C4125EA074C02FB07F506FB07F7AA
:101360000CFB06F602FB0CFC16EB074645EB17459B
:1013700016EB0C4645EB1C42121951F1000148BF17
:101380007047B619524141EB0101A3F101037047C7
:101390004FEA14454FEA114724EA054621EA074C73
:1013A00005FB07F106FB07F70CFB06F24FF0000602
:1013B00005FB0CFC12EB074241EB174112EB0C4210
:1013C00051EB1C4148BF7047921841EB0101A3F15A
:1013D00001037047FEE7704710B590F82110002216
:1013E000022905D00421816380F82020012010BD4E
:1013F00001680B6823F00E030B6001680B6823F093
:1014000001030B6090F84030C46B012101FA03F333
:10141000636080F8211080F82020104610BD000085
:1014200010B590F821100024022903D00421816313
:1014300001243DE001680A6822F00E020A6001689A
:101440000A6822F001020A601A4A0168914201D139
:10145000012121E0174A1432914201D110211BE0F1
:10146000144A2832914201D1891515E0114A3C32C3
:10147000914201D189140FE00E4A5032914202D1BB
:101480004FF4803108E00B4A6432914202D14FF4AC
:10149000801101E04FF08071064A083A5160012145
:1014A00080F82110002180F82010416B01B188479D
:1014B000204610BD0800024070B5044600F0F8F860
:1014C0000546601C02D004480078044400F0F0F89F
:1014D000401BA042FAD370BD240000202DE9F84F34
:1014E000DFF89C91002409F1040A0AF1040B234659
:1014F0000F270BF1040EBBE00125A5402A40AA42AC
:1015000076D1DFF880C14E68A6EB0C0866452BD07B
:101510000DDC032E34D005DC36B3012E19D0022E9B
:101520002FD11BE0112E16D0122E2AD119E0B8F5BA
:10153000881F19D006DCB8F5803F15D0B8F5801F9C
:101540001FD111E0B8F5001F0ED0B8F5041F18D157
:101550000AE0CB6815E0CB681B1D12E0CB680833AE
:101560000FE0CB680C330CE08B682BB1012B4FF0F4
:10157000080303D0456104E0042302E0056100E0B4
:101580000023FF2A01D8064601E000F104064FEAD5
:10159000840501D9A5F12005D6F8008007FA05FCDD
:1015A00028EA0C0803FA05F548EA0508C6F80080A1
:1015B0004D68ED005BD5344DAE6946F00106AE6175
:1015C000AD6924F0030605F0010500952F4D06EBEB
:1015D000050CDCF80850A607360F07FA06F825EACE
:1015E0000805DFF8AC80404503D14FF0000810E05B
:1015F0003DE0DFF8A080404502D14FF0010808E04F
:10160000DFF89480404502D14FF0020801E04FF02E
:10161000030808FA06F848EA0508CCF808804D687F
:10162000D9F80060ED034D4601D5164300E096431E
:101630002E604D68DAF80060AD03554601D51643BB
:1016400000E096432E604D68DBF80060ED025D46D9
:1016500001D5164300E096432E604D68DEF8006029
:10166000AD02754601D5164300E096432E60641C1A
:101670000A6832FA04F57FF43FAFBDE8F88F000046
:101680000004014000001110001002400000014061
:1016900000080140000C0140001001408068084033
:1016A00000D0012070470AB1016170470904FBE7CF
:1016B00001488068704700002400002002488168CB
:1016C000027811448160704724000020074810B55B
:1016D000016841F010010160032000F075F80F204F
:1016E00000F006F800F024F8002010BD00200240B1
:1016F00070B50D4D04464FF47A712878B1FBF0F0C7
:101700000A490968B1FBF0F000F0ECFA48B9102C76
:1017100007D200222146501E00F036F800206C60EF
:1017200070BD012070BD00002400002030000020AA
:101730000C4808B5816941F001018161816901F0BE
:1017400001010091C16941F08051C161C06900F09F
:10175000805000900448416821F0E06141F0007140
:10176000416008BD0010024000000140002809DB74
:1017700000F01F02012191404009800000F1E020AB
:10178000C0F8001170470000F0B40E4B1B680C4607
:10179000C3F30223C3F10705042D00D90425191D45
:1017A000072901D2002300E0DB1E012606FA05F11D
:1017B000491E214099409E40761E16403143F0BCA0
:1017C00000F041BE0CED00E0064900F00702086899
:1017D0004FF6FF03184040EA0220034A1043086016
:1017E000704700000CED00E00000FA052DE9F0471D
:1017F0000F46050061D0434E306800F00700B84244
:1018000009D2306820F0070038433060306800F0BB
:101810000700B84251D128683B4C810712D54007D8
:1018200003D5606840F4E06060602878000703D565
:10183000606840F4605060606068A96820F0F00063
:10184000084360602878C00728D06868012810D055
:101850002168022810D0890700292EDA616821F05A
:10186000030101436160FFF723FF804641F288399D
:101870000DE021688903EFE78901EDE7FFF718FF25
:10188000A0EB0801494502D90320BDE8F087606854
:10189000696800F00C00B0EB810FEFD1306800F008
:1018A0000700B8420BD9306820F007003843306099
:1018B000306800F00700B84201D00120E5E7287841
:1018C000400705D56068E96820F4E060084360607F
:1018D0002878000706D56068296920F4605040EA3E
:1018E000C100606000F038F86168084AC1F3031174
:1018F000515CC8400649086006480068FFF7F8FEDA
:101900000020C2E700200240001002407E3600089E
:10191000300000202800002004480549006849687C
:10192000044AC1F30221515CC840704730000020D6
:10193000001002408E3600080448054900684968D6
:10194000044AC1F3C221515CC840704730000020F6
:10195000001002408E36000812A185B00FC98DE834
:101960000F0014A0144A006804905168134801F055
:101970000C03042B10D0082B0ED1C1F38343C903F1
:101980001DF803000AD5516804AAC1F34041515C17
:101990000A4A5043B0FBF1F005B07047084948438C
:1019A000FAE7000002030405060708090A0B0C0DFC
:1019B0000E0F1010010200000010024000127A0009
:1019C00000093D002DE9F84F040070D02078C04D8B
:1019D000C00749D06868C0F38100012807D0686853
:1019E000C0F38100022809D16868C00306D52868C1
:1019F000800339D560680028E7D035E06068B0F52D
:101A0000803F0BD010B1B0F5A02F11D0286820F482
:101A100080302860286820F4802002E0286840F4A4
:101A200080302860606890B1FFF742FE06460AE009
:101A3000286840F480202860F0E700BFFFF738FEF8
:101A4000801B642873D828688003F7D50CE0FFF763
:101A50002FFE064605E000BFFFF72AFE801B642824
:101A6000F0D828688003F7D420789A4E80074FF08A
:101A700001094FF0000839D5686810F00C0F07D045
:101A80006868C0F38100022809D16868C00306D4E1
:101A90002868800714D52069012808D110E0206942
:101AA000B0B1C6F80090FFF703FE074605E00AE173
:101AB000FFF7FEFDC01B0228C4D828688007F7D5B1
:101AC0002868616920F0F80040EAC10028600DE054
:101AD000C6F80080FFF7ECFD074604E0FFF7E8FDDD
:101AE000C01B022823D828688007F7D42078000775
:101AF0002CD57948A169D9B1C0F80090FFF7D8FD7D
:101B0000074604E0FFF7D4FDC01B02280FD8686A1F
:101B10008007F7D571484FF4FA510068B0FBF1F037
:101B2000009000BF0098411E0091FAD20EE080E0C4
:101B3000C0F80080FFF7BCFD074604E0FFF7B8FDE2
:101B4000C01B022875D8686A8007F7D42078400740
:101B500060D5E8690027C00008D4E86940F08050EB
:101B6000E861E869012700F0805000905C48016856
:101B7000C90513D40168834641F480710160FFF701
:101B800097FD824606E000BFFFF792FDA0EB0A003A
:101B900064284ED8DBF80000C005F5D5E0680128C0
:101BA0000AD008B1052813D0286A20F00100286265
:101BB000286A20F0040002E0286A40F00100286250
:101BC000E06841F2883B98B1FFF772FD82460BE076
:101BD000286A40F004002862EEE700BFFFF768FDC6
:101BE000A0EB0A0159455AD8286A8007F6D50CE0BF
:101BF000FFF75EFD824605E0FFF75AFDA0EB0A0104
:101C000059454CD8286A8007F6D41FB1E86920F0FE
:101C10008050E861E06988B36968C1F381010229F5
:101C200044D00228C6F8608004D0FFF741FD044686
:101C300038E034E0FFF73CFD074604E0FFF738FDED
:101C4000C01B02282BD828688001F7D4206AB0F581
:101C5000803F05D16868A16820F4003008436860BF
:101C6000D4E908010843696821F4741108436860E5
:101C7000C6F86090FFF71CFD044606E025E000BFB3
:101C8000FFF716FD001B022809D828688001F7D548
:101C90001BE000BFFFF70CFD001B022802D9032048
:101CA000BDE8F88F28688001F4D40EE00128F7D051
:101CB0006868226A00F48031914204D1616A00F4BC
:101CC0007010884201D00120EAE70020E8E7000018
:101CD00000100240000042428004424230000020D6
:101CE0000070004010B5401EB0F1807F01D301208C
:101CF00010BD4FF0E02460610F21601700F0A3FBDE
:101D00000020A06107202061002010BD70477047AF
:101D1000F8B5026804461068D168536910F00F0FD7
:101D20004FF0000554D003F0010601F490773743DB
:101D30005FD0C20705D0CA0503D5226C42F001026C
:101D40002264420705D5DA0703D0226C42F0020272
:101D50002264820705D5DA0703D0226C42F0040220
:101D60002264020707D501F02002324303D0226C1F
:101D700042F008022264226C002A35D0800604D585
:101D8000880602D5204600F059FA20684069216C87
:101D9000C0F3801001F008010143204625D000F077
:101DA00035FA2068416949061BD5416921F0400197
:101DB0004161A06BA8B158494163A06BFFF730FBAC
:101DC000002811D0A06B416B01B0BDE8F04008477E
:101DD00083060ED58B060CD52046BDE8F84000F0F2
:101DE0002DBA2046FFF793FFF8BDFFF790FF25645B
:101DF000F8BD266B2023012E52D1C60650D5CE0643
:101E00004ED5106850680090506940062AD5A16BE5
:101E1000086840680004000CEAD0A68D8642E7D925
:101E2000E0858869202818D0D06820F48070D060C0
:101E30002068416921F0010141612068416921F078
:101E40004001416184F83E3025632068C16821F07B
:101E50001001C160A06BFFF7BFFAA08DE18D401AA1
:101E600081B219E0A08DE18D401A81B2E08D002889
:101E7000BED00029BCD0D06820F49070D06020681B
:101E8000426922F00102426184F83E3025632068F5
:101E9000C26822F01002C2602046FFF737FFF8BD8B
:101EA00005062BD50D0629D594F83D002128F6D13D
:101EB000A068B0F5805F01D12069B0B1206A411CF3
:101EC0002162216800784860E08C401E0004000C0C
:101ED000E084E4D12068C16821F08001C1602068FD
:101EE000C16841F04001C160F8BD206A0088C0F3BC
:101EF00008005060206A801C2062E5E74006F3D5A8
:101F00004806F1D5D168204621F04001D16084F81F
:101F10003D3000F0D0F8F8BDFD21000870B5040098
:101F200004D094F83D00002510B106E0012070BDFA
:101F300084F83C50204600F023F8242084F83D002B
:101F40002068C16821F40051C160204600F0D2F938
:101F50002068016921F4904101612068416921F004
:101F60002A0141612068C16841F40051C1602564C3
:101F7000202084F83D0084F83E00002070BD000061
:101F800030B585B000240094019402940394006855
:101F9000184988422CD11848816941F480418161F7
:101FA000816901F480410491816941F004018161FA
:101FB0008069124D00F0040004904FF4007000900E
:101FC000022001900320039069462846FFF786FA15
:101FD0002815CDE90004694628460294FFF77EFAE9
:101FE000002201212520FFF7CFFB2520FFF7BEFBB4
:101FF00005B030BD0038014000100240000801402B
:10200000704700002DE9F843044690F83D001F4654
:1020100016460D4620284CD1C5B1BEB194F83C00FF
:10202000012846D0012084F83C004FF00008C4F895
:102030004080212084F83D00FFF73AFBA6848146CA
:10204000E684A068B0F5805F03D004E00120BDE81D
:10205000F883206928B12E465FF0000584F83C80A3
:102060000EE00026FAE78021204600F09FF9A0B993
:10207000AEB116F8010B21684860E08C401EE08488
:10208000E08C4B464FF0000200970028EBD14FF058
:102090004001204600F08AF930B10320D7E735F837
:1020A000020BC0F30800E6E7202084F83D00002082
:1020B000CDE70220CBE77047FEE700002DE9F047AF
:1020C00086B00024314800940194029403948169FD
:1020D00041F020018161816901F020010491816951
:1020E00041F004018161816901F004010491816979
:1020F00041F0080181618069DFF8949000F00800E8
:1021000004900022F6214846FFF7CDFADFF884A0BC
:1021100048F20107012239465046FFF7C4FA4FF44E
:10212000F078012241465046FFF7BDFAF62001261D
:10213000CDE90006022569464846CDE90245FFF78C
:10214000CDF90820CDE90004694648460294FFF71E
:10215000C5F9CDE9007669465046CDE90245FFF75D
:10216000BDF91E208DE8310069465046FFF7B6F9EB
:102170001120CDF80080CDE90105032003906946C8
:102180005046FFF7ABF906B0BDE8F08700100240FB
:1021900000080140000C0140FEE7FEE77047704771
:1021A000FFF78CBA30B58FB028216846FEF738F9B2
:1021B00014210AA8FEF734F901210804002404912F
:1021C000CDE90010CDE90804029402250795684680
:1021D000FFF7F8FB08B172B6FEE70F200A90CDE9D1
:1021E0000B540D9400210AA80E94FFF7FFFA002863
:1021F00001D072B6FEE70FB030BD704710B5406A2F
:102200000021C185C184FFF782FD10BD0168CA6845
:1022100022F49072CA6001684A6922F001024A61A0
:10222000016B012904D10168CA6822F01002CA605A
:10223000202180F83E1000210163704708B590F816
:102240003E10222901D0022008BD82684FF480533D
:102250009A4201D1016921B1816A9A421BD04AB1E7
:102260000AE00268816A5268C2F308020A80816A41
:10227000891C08E0026972B10268526802F07F02AC
:102280000A70816A491C8162C18D491E0904090CCA
:10229000C18503D019E002685268F1E70168CA6895
:1022A00022F02002CA600168CA6822F48072CA6003
:1022B00001684A6922F001024A61202180F83E103B
:1022C000016B012903D0FFF79BFE002008BD002110
:1022D00001630168CA6822F01002CA6001680A68D6
:1022E000D20602D50A6849680091818DFFF70EFD7C
:1022F000EBE7000070B5044600680169E26821F46C
:102300004051114301612169A06808436169084394
:102310002168CA6841F20C639A430243CA6020688C
:102320004169A26921F44071114341611E4920684D
:10233000884202D1FFF700FB01E0FFF7EDFA00EB66
:10234000C00101EB0012606864218000B2FBF0F371
:10235000B3FBF1F36FF018067343B2FBF0F5B2FB79
:10236000F0F605EB8305322303EB0515B5FBF1F51C
:10237000B6FBF1F605F0F00505EB0615B2FBF0F63D
:10238000B2FBF0F0B0FBF1F06FF01802504306EB37
:10239000800003EB0010B0FBF1F0216800F00F00AB
:1023A0002844886070BD0000003801402DE9F041EC
:1023B000984617460E460446069D1DE0681C1BD035
:1023C0002DB1FFF775F9A0EB0800A84214D92068D9
:1023D000C16821F4D071C1602068416921F0010118
:1023E0004161202084F83D0084F83E00002084F8FC
:1023F0003C000320BDE8F0812068006836EA000058
:1024000004D00020B842D9D00020F3E70120F9E73A
:102410000148FFF77DBC000034000020FEE74900C2
:1024200050EAC12018BF04204A0D18BF40F0010037
:1024300040F2FF72B2EB515F08BF40F0020001288A
:1024400008BF052070470907090E002804DB00F1CA
:10245000E02080F80014704700F00F0000F1E02049
:1024600080F8141D704730380A2801D201207047C7
:10247000002070470121002000F05CB810B51E203C
:10248000FFF71AF81A4C002210212046FFF70BF92B
:10249000012220212046FFF706F900224021204694
:1024A000FFF701F9002280212046FFF7FCF8002207
:1024B00004212046FFF7F7F8012202212046FFF70A
:1024C000F2F8002202212046FFF7EDF82821002033
:1024D00000F030F80C21002000F02CF8062100203C
:1024E00000F028F80121BDE81040002000F022B8DB
:1024F0000008014010B5144630B1012806D002286A
:1025000006D0032811D105E0803104E0C03102E09B
:10251000943100E0D431C9B2002000F00BF804E09F
:10252000C1B2012000F006F8641C20780028F7D121
:1025300010BD000070B506460C460220FEF7BCFF39
:10254000334D0EB1012200E0002204212846FFF79E
:10255000AAF8200601D5012200E0002280212846A9
:10256000FFF7A1F8600601D5012200E0002240211A
:102570002846FFF798F8A00601D5012200E00022C6
:1025800020212846FFF78FF8E00601D5012200E060
:10259000002210212846FFF786F801220221284652
:1025A000FFF781F8002202212846FFF77CF8200778
:1025B00001D5012200E0002280212846FFF773F8B0
:1025C000600701D5012200E0002240212846FFF7E4
:1025D0006AF8A00701D5012200E000222021284648
:1025E000FFF761F8E00701D0012200E0002210218E
:1025F0002846FFF758F8012202212846FFF753F832
:102600002846BDE8704000220221FFF74CB80000C8
:1026100000080140FFF75AF8FFF7C4FDFFF74EFD31
:10262000B748B649002501604FF41651C0E90115BD
:102630000C21C560C0E904518561C561FFF76EFCDE
:1026400008B172B6FEE7FFF719FF0021ADA20846F8
:10265000FFF750FFAF4F012211463846FFF723F82E
:10266000DFF8B4A24FF4004B4FF00108FF26AB4C4B
:1026700000F094F908215046FFF710F840B9206A9D
:1026800010F0FF4F04D0002201213846FFF70BF86D
:1026900059463846FFF702F800285DD1206A10F04D
:1026A000FF4F59D04FF07E51E06900F00DFDE06121
:1026B000FFF7E0FED4E9070100F06AFE15D2002121
:1026C00097A20846FFF716FFE06900F0D1FC02462A
:1026D0008B480B4695A14430FDF786FD884A0021C2
:1026E00044320120FFF706FF36E00122114638464A
:1026F000FEF7D9FF00218FA20846FFF7FBFEE06935
:1027000000F0B6FC02467E480B4688A14430FDF737
:102710006BFD7B4A052144320020FFF7EBFEA068E9
:1027200000F022FEE16900F067FE00F0FDFD20618F
:1027300082A200210120FFF7DDFE714881A1443013
:102740002269FDF751FD6E4A062144320120FFF750
:10275000D1FE2562A561E560A07818BBFFF78AFE6F
:10276000002179A20846FFF7C5FE654875A14430EF
:10277000A268FDF739FD624A002144320120FFF7CB
:10278000B9FEA670E5703220FEF796FEFFF772FEE6
:1027900000216EA20846FFF7ADFE70A200210120C5
:1027A000FFF7A8FE3220FEF787FE6078B0B9FFF78A
:1027B00061FE00216CA20846FFF79CFE504861A113
:1027C0004430E268FDF710FD4D4A002144320120FB
:1027D000FFF790FE667084F80380E5613220FEF713
:1027E0006BFE2078E8B9FFF745FE002160A208469D
:1027F000FFF780FEA06900F03BFC024640480B4614
:102800005CA14430FDF7F0FC3D4A00214432012038
:10281000FFF770FE267084F803803220E561FEF732
:102820004BFEE07801287FF423AFA06910F0FF4F42
:1028300009D1A06800F098FD8146E06800F094FDA1
:10284000494600F0AFFC2062FFF714FE00214BA2C6
:102850000846FFF74FFE206A00F00AFC02462848AF
:102860000B4644A14430FDF7BFFC254A0021443209
:102870000120FFF73FFE224843A16C30FDF7A0FD89
:102880001F49443101F12800FDF7BEFDA06800F0AA
:102890006BFD216A00F0B0FD00F046FD024660616C
:1028A000174828A14430FDF79FFC154838A158303F
:1028B000FDF786FD1249443101F11400FDF7A4FD36
:1028C0000F4835A15830FDF79FFD0D49583101F1F2
:1028D0002800FDF775FD0A496C3101F11400FDF780
:1028E00093FD07494FF0FF33322280310448FFF750
:1028F00089FBE570FFF7BEFDBAE600000038014035
:10290000340000204E686170204769612031204CFE
:1029100069740000000C0140000801400000002024
:102920004C69742044612042616E000025302E32D3
:10293000660000004C69743A200000005469656E1E
:102940003A20000025640000476961004E6861700C
:10295000205469656E20686F616320006E68617045
:10296000204C6974000000005469656E000000008E
:102970004C69740025302E31660000004C697420CB
:1029800043616E2042616E004C69743A00000000A1
:102990005469656E3A0000003B0000002DE9F05FCD
:1029A000FF4D002202212846FEF77DFE0122042170
:1029B0002846FEF778FE012208212846FEF773FE1E
:1029C000012210212846FEF76EFE0120FEF774FD5D
:1029D00020212846FEF762FEF24C4FF0070A01273D
:1029E00040BBF1A261790120FFF784FD2771A07837
:1029F000012806D0607801280AD0207801280ED05E
:102A000015E0A06800EB80010AEB4100A0600EE039
:102A1000E06800EB80010AEB4100E06007E0E34979
:102A2000A06900F0E9FCE24900F04EFBA06160798A
:102A3000401C607140212846FEF730FE4FF0080B25
:102A400050BBDCA261790120FFF754FD0220207108
:102A5000A078012806D0607801280AD020780128C3
:102A60000ED016E0A06800EB80010BEB4100A060E7
:102A70000FE0E06800EB80010BEB4100E06008E054
:102A8000CA49A06900F0B8FC4FF0824100F01CFB7D
:102A9000A0616079401C607180212846FEF7FEFD30
:102AA00010BBC5A261790120FFF724FD6079401CAD
:102AB000607103202071A078012806D06078012879
:102AC0000BD02078012810D017E0A06800EB80011F
:102AD000092000EB4100A0600FE0E06800EB8001FE
:102AE000092000EB4100E06007E0B049A06900F078
:102AF00083FCB24900F0E8FAA0614FF480712846E7
:102B0000FEF7CCFDFF264FF00408002568B9FFF75B
:102B1000B1FC00216571AAA20846FFF7EBFC84F81E
:102B200004802770A6706670E560DFF87492012259
:102B300020214846FEF7B7FD012240214846FEF716
:102B4000B2FD012280214846FEF7ADFD01221102AF
:102B50004846FEF7A8FD012202214846FEF7A3FDE4
:102B6000002204214846FEF79EFD01220821484626
:102B7000FEF799FD012210214846FEF794FD012041
:102B8000FEF79AFC20214846FEF788FD4FF0050924
:102B900000BB8CA261790120FFF7ACFC6079401C7E
:102BA000607184F80490A078012806D0607801282C
:102BB0000AD0207801280ED016E0A06800EB800132
:102BC00008EB4100A0600FE0E06800EB800108EB3B
:102BD0004100E06008E07549A06900F00DFC4FF08D
:102BE000814100F071FAA06140216D48FEF756FD69
:102BF0004FF0060800BB74A261790120FFF77AFC50
:102C00006079401C607184F80480A078012806D0A7
:102C1000607801280AD0207801280ED015E0A0683D
:102C200000EB800109EB4100A0600EE0E06800EBE2
:102C3000800109EB4100E06007E05C49A06900F019
:102C4000DBFB624900F040FAA06180215448FEF7A6
:102C500025FD00BB5EA261790120FFF74BFC607986
:102C6000401C607184F804A0A078012806D0607828
:102C700001280AD0207801280ED015E0A06800EBCA
:102C8000800108EB4100A0600EE0E06800EB8001ED
:102C900008EB4100E06007E04449A06900F0ACFBAC
:102CA0004C4900F011FAA061DFF8F4804FF480790C
:102CB00049464046FEF7F2FC68B9FFF7DBFB00210E
:102CC00045A20846FFF716FC657184F804B06770EA
:102CD000A6702670A561012220214046FEF7E3FC84
:102CE000012240214046FEF7DEFC012280214046C1
:102CF000FEF7D9FC0122CA4649464046FEF7D3FCFE
:102D0000012202214046FEF7CEFC0122042140466A
:102D1000FEF7C9FC002208214046FEF7C4FC012250
:102D200010214046FEF7BFFC0120FEF7C5FB202125
:102D30004046FEF7B3FC00BB29A261790120FFF7F2
:102D4000D9FB6079401C607109202071A0780128AE
:102D500006D0607801280AD0207801280ED016E02D
:102D6000A06800EB800007EB4000A0600FE0E06887
:102D700000EB800007EB4000E06008E00B49A06931
:102D800000F03AFB4FF07E5100F09EF9A061402127
:102D90004046FEF783FC38BB12A26179012024E093
:102DA000000C01400000002037000000000020411E
:102DB0000000E04038000000390000000000104131
:102DC0004C69740034000000350000000000A04091
:102DD000360000000000C0405469656E000000002D
:102DE000310000003200000029E0FFF783FB60792A
:102DF000401C60710A202071A078012806D06078FC
:102E000001280BD02078012810D018E0A06800EB32
:102E10008001022000EB4100A06010E0E06800EBC0
:102E20008001022000EB4100E06008E07849A069E1
:102E300000F0E2FA4FF0804100F046F9A0618021F5
:102E4000C1464046FEF72AFC10BB72A26179012000
:102E5000FFF750FB6079401C60710B202071A07857
:102E6000012806D0607801280BD02078012810D0E6
:102E700017E0A06800EB8001032000EB4100A06098
:102E80000FE0E06800EB8001032000EB4100E06010
:102E900007E05F49A06900F0AFFA5F4900F014F95C
:102EA000A061D04651464846FEF7F8FB60B9FFF7EF
:102EB000E1FA0021657159A20846FFF71BFB0C20BF
:102EC0002071A77026706670012220214F46484667
:102ED000FEF7E9FB012240213846FEF7E4FB012220
:102EE00080213846FEF7DFFB012241463846FEF7D7
:102EF000DAFB012202213846FEF7D5FB012204212C
:102F00003846FEF7D0FB012208213846FEF7CBFBFE
:102F1000002210213846FEF7C6FB0120FEF7CCFA4E
:102F200020213846FEF7BAFB48B93DA2617901205D
:102F3000FFF7E0FA6079401C60710D20207140219C
:102F40003846FEF7ABFB20BB36A261790120FFF7C4
:102F5000D1FA6079401C60710E202071A0780128A0
:102F600006D06078012809D0207801280CD010E024
:102F7000A06800EB80004000A0600AE0E06800EB81
:102F800080004000E06004E02149A06900F034FACC
:102F9000A06180213846FEF781FB78B9FFF76AFA15
:102FA0000F202071A078012800D1A5702078012879
:102FB00000D125706078012800D1657041463846FF
:102FC000FEF76CFB70B9FFF755FA10202071A56170
:102FD000A560E560A67026700021667012A2084602
:102FE000FFF788FA012220213846FEF75CFB012218
:102FF00040213846FEF757FB012280213846FEF774
:1030000052FB41463846BDE8F05F0122FEF74BBB5C
:10301000000020413300000000004040476961008B
:103020002E000000300000004E686170204769618A
:103030002031204C6974000010B500290AD00878AE
:10304000002807D005487844FDF7C2FD002801D0CC
:10305000002010BD0248784410BD00001607000093
:103060000E0700000808A0F500114FEA3101704773
:1030700043004FEAD30C4FEA3C0C43401FBF4007CC
:103080000CF1605113F0FE4F70471CF0006F03D13C
:1030900000200CF0004170470CF0004343EA5070F0
:1030A00010B540EACC0000F028FA00BF0000009202
:1030B0004FEA0001FFF7D6BF4FF000414FF000008C
:1030C000A1F500217047000090EA010F48BF81F090
:1030D000004100F16482421A3CBF801A89184FEA0D
:1030E000D0524FF07F4C1CEA410FA2EBD15318BFD6
:1030F0009CEA026F00F03B804FF0004C4CEA00204D
:103100004CEA012121FA03FC10EB0C0C1ED202F157
:10311000FF325FEA1C2040EBC25038BF70471CF002
:103120007F0F4FEA400C18BFBCF17F4F38BF70478C
:10313000C3F12003994008BF20F00100BCF17F4F8C
:1031400038BF7047A0F1C04000F01DBA4FEA3C0004
:10315000000A40EBC25028BF1CF0FF0F4FEA400CA2
:10316000E6D018BFBCF17F4F38BF7047EAE79CEA52
:10317000026F05D010EA5C0F08BF00F000407047F6
:1031800010B500F0BAF900BF64FBBE3E401058BF56
:10319000C0F14040491058BFC1F140418142EFF3B6
:1031A000008070474FF47F0C1CEAD0121EBF1CEA4F
:1031B000D11392EA0C0F93EA0C0F00F0858090EA8D
:1031C000010F48BF42F4807240F4000C41F400004B
:1031D0002CF07F4120F07F4000B58142A2EB03023A
:1031E0000FF2081CACEB504EC0F100009EF800E05E
:1031F0004FEA4E0E00FB0EFC38BF49004FEA2C1C74
:1032000002F5FA020CFB0EF34FEACE1E4FEA112C28
:103210004FEAC1210EEB635E42EB22420EFB0CFC37
:103220004FEA1C5300FB03114FEA112C4FEA013106
:103230000EFB0CFC4FEADC4C00FB0C11C14228BF1A
:1032400009184CEB03335DF804EB10EB410143EB41
:10325000C250B2F57C0F38BF704729D512F0F00F7D
:103260001CBF00F1C04000F0004070470081828325
:103270008485868788898B8C8D8E8F919293959685
:1032800097999A9C9D9FA0A2A3A5A7A8AAACAEB00F
:10329000B2B3B5B7B9BCBEC0C2C5C7C9CCCED1D414
:1032A000D7D9DCDFE2E6E9ECF0F3F7FAFE00000044
:1032B0004FEA400C0CF1807CBCF17E4F28BF704778
:1032C000B0F1C04000F05FB990EA010F0CEAD113F1
:1032D00048BF42F48072624538BF634507D213F499
:1032E0007F0F16D080EA010000F00040704710B553
:1032F00000F003F9097EFC3E00F005B880EA010009
:1033000000F00040704780EA010000F0004000F04B
:103310003AB912F47F0F04BF0248704780EA0100F7
:1033200000F031B90000C07FC10DD1F19E0206DB73
:103330004FEA002343F0004323FA02F070470042B3
:1033400007D54FEA4001B1F1FE4F02D24FF0000025
:10335000704710B500F0D1F84992248000207047E2
:103360006FEA200070470000B0FA80F310FA03F211
:10337000C3F19D030AD0D90501EB1220530638BFD3
:10338000704700F1010008BF20F001007047000005
:1033900050EA010C00F113801CF5000F58BFBCF57A
:1033A000000F01D48842704707D710F5000F58BFAF
:1033B00011F5000F15D488427047894270471CF5FB
:1033C000000F04D5BCF5000FF7D5814270474FF0D0
:1033D000807C1CEB400F38BF1CEB410F01D28142B7
:1033E000704710B500F089F8922449004FF0005062
:1033F0004FF08051FFF7CABE4FF47F0C1CEAD01289
:103400001EBF1CEAD11392EA0C0F93EA0C0F00F0D6
:10341000478090EA010F48BF42F480724FF0004CA1
:103420004CEA00204CEA012102EB0302A0FB01134D
:10343000A2F50002002918BF43F001035B0028BF7A
:103440004FEA330342EB22425FEA132C4CEBC250AB
:103450002EBFBCEB436FB2F57C0F70474FEA036C95
:10346000BCF1004F08BF20F00100B2F57C0F38BF5F
:1034700070470BD582F0FF0212F5803FC8BF70473E
:1034800000F1C040D8BF00F00040704700F5000CCC
:103490005FEA4C0C48BF7047B0F1C04000F073B811
:1034A00090EA010F0CEAD11348BF42F480726245E2
:1034B00038BF634504D280EA010000F00040704745
:1034C00010B500F01AF800BF8900013E00F007B8FF
:1034D00000F009B85FEA410C5FEA1C6C08D080EA92
:1034E000010000F050B85FEA400C5FEA1C6CF6D1B6
:1034F0004FF00040A0F5800070470EF1020E2EF054
:10350000030E5EF8044B244204D44FEA4102B2F1A8
:103510007F4F11D84FEA4003B3F17F4F0CD80ED143
:103520004FEAD07CB2F17F4F0CEB4C0C0CF1020C4B
:1035300008BF4CEBD17C04E04FF0080C01E04FEAEF
:10354000D17C0CEB4C0324FA03F404F00704B4F12F
:10355000040C06D20EEB840CBDE810404CF0010CBC
:103560006047DFE80CF0070802024FF00040A0F5CA
:10357000800010BD0846420018BFD2F1807288BF9B
:1035800000F0004010BDFF2141EAD050C005704757
:1035900090EA010F48BF81F000413FF59CAD421A0F
:1035A00004D882F00042A0EB020011444FEAD0524E
:1035B0004FF07F4C1CEA410FA2EBD15318BF9CEA9D
:1035C000026F4AD04FF0004C4CEA00204CEA012137
:1035D00021FA03FCB0EB0C0C0FD412F0FE0F36D026
:1035E0005FEA4C001DD5001240EBC25038BF704757
:1035F0001CF03F0F18BF70470BE0A2F101025FEA19
:103600001C2040EBC25038BF70471CF07F0F18BF22
:103610007047C3F12003994014BF401E20F0010001
:10362000704780084FEA122308BF7047B0FA80FC49
:10363000A2EB0C02CCF1280C60FA0CF093EA122FEA
:1036400004BF00EBC25070474FEAC3707047130AC3
:103650005FEADC1008BF7047F6E79CEA026F04D00F
:1036600010EA5C0F08BF0020704710B5FFF745FF58
:1036700040DFF63E81F000407047FDF72BB80000B8
:103680000000000000000102030406070809000012
:103690000000010203040400000800000000000014
:1036A000000200010000100002400000000000A025
:1036B0000000000005400000000000C800000000FD
:1036C0000C4000000000409C000000001940000079
:1036D0000020BCBE0000000034400000BFC91B8EAB
:1036E00000000004B5400000504BCFD06607E2CF89
:1036F000010000006C4100003E8251AADFEEA734B9
:1037000001000000D9420000DCB5A0E23A301F976A
:10371000FFFFFFFFB4450000FD25A0C8E9A3C14F8E
:10372000FFFFFFFFFF3F00000000008000000000DF
:10373000FF3F000000000080000000007837000814
:10374000000000203400000028010008AC37000809
:103750003400002014070000440100081C00000091
:1037600043000000F8FFFFFF0C0000000E00000007
:103770000F0000002E000000FFFFFF00000000000F
:103780000000000000000000000000000000000039
:103790000000000000000000000000000100000028
:0C37A00010000000000000000024F400F5
:04000005080000ED02
:00000001FF
